:020000040800F2
:10000000005000205D5A0008435F01084D5F010861
:1000100000000000000000000000000000000000E0
:10002000000000000000000000000000AD5A0008C1
:100030000000000000000000AD5A0008555F0108F4
:10004000AD5A0008AD5A00087D5F0108AD5A00089E
:10005000AD5A00088B5F0108A15F0108B95F010874
:10006000AD5A0008AD5A0008AD5A0008AD5A000854
:10007000AD5A0008AD5A0008AD5A0008AD5A000844
:10008000AD5A0008AD5A0008AD5A00080000000043
:10009000AD5A0008AD5A0008AD5A0008AD5A000824
:1000A000AD5A0008AD5A0008AD5A0008655F010856
:1000B000AD5A0008AD5A000800000000AD5A000813
:1000C00010B5064C2378002B07D1054B002B02D02E
:1000D000044800E000BF0123237010BD7001002020
:1000E000000000006C770108044B10B5002B03D012
:1000F0000349044800E000BF10BDC04600000000F6
:10010000740100206C770108002243088B4274D3ED
:1001100003098B425FD3030A8B4244D3030B8B4208
:1001200028D3030C8B420DD3FF22090212BA030C11
:100130008B4202D31212090265D0030B8B4219D3F2
:1001400000E0090AC30B8B4201D3CB03C01A524112
:10015000830B8B4201D38B03C01A5241430B8B425A
:1001600001D34B03C01A5241030B8B4201D30B0343
:10017000C01A5241C30A8B4201D3CB02C01A52416A
:10018000830A8B4201D38B02C01A5241430A8B422D
:1001900001D34B02C01A5241030A8B4201D30B0216
:1001A000C01A5241CDD2C3098B4201D3CB01C01A30
:1001B000524183098B4201D38B01C01A524143093A
:1001C0008B4201D34B01C01A524103098B4201D328
:1001D0000B01C01A5241C3088B4201D3CB00C01A95
:1001E000524183088B4201D38B00C01A524143080D
:1001F0008B4201D34B00C01A5241411A00D2014632
:10020000524110467047FFE701B5002000F0F0F8BA
:1002100002BDC0460029F7D076E7704703460B437E
:100220007FD4002243088B4274D303098B425FD3EF
:10023000030A8B4244D3030B8B4228D3030C8B421B
:100240000DD3FF22090212BA030C8B4202D3121201
:10025000090265D0030B8B4219D300E0090AC30BD6
:100260008B4201D3CB03C01A5241830B8B4201D383
:100270008B03C01A5241430B8B4201D34B03C01A6C
:100280005241030B8B4201D30B03C01A5241C30AE4
:100290008B4201D3CB02C01A5241830A8B4201D355
:1002A0008B02C01A5241430A8B4201D34B02C01A3F
:1002B0005241030A8B4201D30B02C01A5241CDD2E4
:1002C000C3098B4201D3CB01C01A524183098B422F
:1002D00001D38B01C01A524143098B4201D34B0118
:1002E000C01A524103098B4201D30B01C01A52417B
:1002F000C3088B4201D3CB00C01A524183088B4202
:1003000001D38B00C01A524143088B4201D34B00EA
:10031000C01A5241411A00D201465241104670475C
:100320005DE0CA0F00D04942031000D34042534061
:1003300000229C4603098B422DD3030A8B4212D321
:10034000FC22890112BA030A8B420CD38901921153
:100350008B4208D3890192118B4204D389013AD090
:10036000921100E08909C3098B4201D3CB01C01A65
:10037000524183098B4201D38B01C01A5241430978
:100380008B4201D34B01C01A524103098B4201D366
:100390000B01C01A5241C3088B4201D3CB00C01AD3
:1003A000524183088B4201D38B00C01A5241D9D2EB
:1003B00043088B4201D34B00C01A5241411A00D26C
:1003C0000146634652415B10104601D34042002B68
:1003D00000D54942704763465B1000D3404201B5E7
:1003E000002000F005F802BD0029F8D016E770479C
:1003F0007047C0468446101C62468C46191C6346F2
:1004000000E0C0461FB501F001FE002801D4002124
:10041000C8421FBD10B501F05BFD4042013010BD68
:1004200010B501F0F3FD002801DB002010BD012014
:1004300010BDC04610B501F0E9FD002801DD002027
:1004400010BD012010BDC04610B501F07BFD002895
:1004500001DC002010BD012010BDC04610B501F028
:1004600071FD002801DA002010BD012010BDC0463A
:100470008446081C6146FFE71FB500F071FC0028A8
:1004800001D40021C8421FBD10B500F003FC40425A
:10049000013010BD10B500F063FC002801DB002026
:1004A00010BD012010BDC04610B500F059FC002859
:1004B00001DD002010BD012010BDC04610B500F0C8
:1004C0000FFC002801DC002010BD012010BDC0463B
:1004D00010B500F005FC002801DA002010BD012055
:1004E00010BDC046002B11D1002A0FD1002900D128
:1004F000002802D00021C943081C07B4024802A109
:100500004018029003BDC046E9FEFFFF03B46846F1
:1005100001B5029800F024F8019B9E4602B00CBC85
:100520007047C04670B500220C4B04000D00FFF769
:1005300095FF002804D12000290002F05FFB70BD68
:10054000064B00222000290002F042F802F056FB80
:1005500080231B069C466044F1E7C0460000E04152
:10056000F0B557464E464546DE46E0B5040083B03A
:100570000D00924699468B422FD82CD049465046C2
:1005800002F0E4FC29000600200002F0DFFC331A30
:100590009846203B9B4600D574E053465A4693400C
:1005A0001F005346424693401E00AF4229D826D032
:1005B0005B46A41BBD41002B00DA79E0002200233A
:1005C0000092019301235A4693400193012342462E
:1005D0009340009319E08242D0D900220023009278
:1005E00001930C9B002B01D01C605D600098019969
:1005F00003B03CBC90469946A246AB46F0BDA34230
:10060000D6D900220023009201934346002BE8D064
:10061000FB0772081A4346467B080EE0AB4201D145
:10062000A2420CD8A41A9D41012024196D41002139
:10063000013E24184D41002E06D0AB42EED9013EBA
:1006400024196D41002EF8D15B46009801990019DC
:100650006941002B22DB2B005A46D3402A00444636
:10066000E2401C005B461500002B2CDB26009E4060
:10067000330026004746BE403200801A9941009060
:100680000191AEE7424620239B1A5246DA4041468A
:1006900013004A468A4017001F4382E74246202340
:1006A0009B1A2A0046469A402300F3401343D5E79D
:1006B0004246202300219B1A002200910192012230
:1006C000DA40019282E74246202326009B1ADE4050
:1006D0002F00B446974066463B003343C9E7C04607
:1006E000F0B5C6464E024702760A7B0A4400C50FA3
:1006F000F7004800984600B5240E2A00DB00000EE3
:10070000C90FBC468D4267D0221A002A00DCA5E042
:1007100000283AD1002F00D193E0511E002900D0CB
:10072000BCE00124DB1B5A0146D59B019E09300029
:1007300002F0EEFB05388640844200DD9DE0041B9C
:10074000320020200134E240041BA64033005E1E2C
:10075000B341002413435A0704D00F221A40042A3D
:1007600000D004335A0129D50134FF2C00D181E097
:100770002A009B015B0AE4B25B02E405580AD20737
:100780002043104304BC9046F0BDFF2CE3D08021F1
:100790003800C904084384461B2A00DD82E020207B
:1007A0006146D140821A604690400200501E82414C
:1007B0000A439B1A5A01B8D45A07CED1DE082A0040
:1007C000FF2C3AD1002E00D1AEE08023DB0333436F
:1007D0005B025B0AFF24CFE7211A002952DD0028C3
:1007E00031D0FF2CB7D080203E00C0040643B44671
:1007F0001B2900DDAAE020266046C840711A664623
:100800008E4031004E1EB14101435B185901D3D5D2
:100810000134FF2C00D187E0012278491A405B089F
:100820000B40134397E7002C00D0A7E0002B00D02B
:10083000B6E03B1E62D10026002273025B0AE4B2DE
:100840009AE7140087E7002F4DD0481E002857D1A3
:10085000634401245A01AFD50224DDE7002A24D1E4
:10086000621CD2B2012ADEDDDE1B720135D5FE1A12
:100870000D005CE72A0000237EE73300604A241A5B
:10088000134068E7002963D1611CC8B201284EDD1E
:10089000FF2949D063445B080C005CE7FF2A41D084
:1008A0000A0079E701229B1A84E7002C1DD0FF285B
:1008B00022D08024E404524223431B2A00DD8AE034
:1008C0001C002025D440AA1A93405A1E934123436A
:1008D00062460400D31A0D0025E7002E00D026E75B
:1008E00000220024A9E70C0035E7002B4DD0D243AD
:1008F000002AEDD0FF28E0D16346FF240D002AE74F
:10090000FF290FD0010073E7002B61D0FF24002FD7
:1009100000D120E780224146D203114202D0164284
:1009200000D13B00FF2416E7FF24002324E7002C1E
:10093000EAD1002B58D0002F00D10CE763445A01B4
:1009400000D439E72E4A0C00134004E701215CE78C
:10095000002C1ED1002B40D0C94300290BD0FF280A
:1009600036D01B2947DC1C002026CC40711A8B4056
:10097000591E8B4123436344040047E7002B18D1E1
:100980003B1E2DD00D00FF24E5E63B0004000D00CA
:10099000E1E6FF281CD08024E40449422343E0E739
:1009A000002F00D1D7E6DE1B72011FD5FB1A0D0008
:1009B000D1E6FF24002F00D1CDE680224046D203AD
:1009C0001042AFD01642ADD13B000D00FF24C2E66D
:1009D0006346FF24BFE601237AE73B000400BAE642
:1009E00080260022F603F0E63B00B4E6331E00D07A
:1009F000E2E6002221E70123BDE7C046FFFFFF7DBD
:100A0000FFFFFFFBF0B557464E46DE464546E0B5D4
:100A100044024300C60F83B00F1C640A1B0EB2468B
:100A200053D0FF2B27D08022E400D20414437F222E
:100A3000524290469844002399469B467D02780096
:100A4000FB0F6D0A000E009324D0FF2846D08023B0
:100A50000021ED00DB041D437F384746381A4F461E
:100A60000F43BF00B9463300009A874F53404A46B0
:100A7000BA5801939746002C4ED108239946F73374
:100A80009846FD3B9B467D027800FB0F6D0A000EE9
:100A90000093DAD1002D26D1002001213300009AE5
:100AA0007A4F53404246101A4A460A439200BA58B7
:100AB0001D009746009B2C009A468B465B46022BF6
:100AC00031D15346FF21002438E0002C17D10423F4
:100AD00099460023984601339B46AFE7FF20002D3F
:100AE0000BD10221DAE7280002F012FA431F9D40E1
:100AF00076235B42181A0021AFE70321ADE72000FF
:100B000002F006FA431F9C4076235B421B1A98466C
:100B1000002399469B4691E70C239946F333984668
:100B2000FC3B9B468AE7032B00D1A5E05546012BF1
:100B300000D081E00123002100242B406402C9057C
:100B4000600ADB070843184303B03CBC9046994653
:100B5000A246AB46F0BD80240023E403FF21EDE76D
:100B6000FF210024EAE70123591A1B2966DD019AB7
:100B7000134000210024E1E78023DB031C4238D02E
:100B80001D4251D01C436402640A3300FF21D5E7A3
:100B900063016C01A3423BD21B26002101380125D1
:100BA0001F0049005B00002F01DB9C4201D81B1B8A
:100BB0002943013E002EF3D11C00631E9C410C43CF
:100BC00001007F310029CEDD630704D00F232340CD
:100BD000042B00D00434230103D501002C4B8031B9
:100BE0001C40FE290DDD0123019AFF211340002442
:100BF000A4E78023DB031C436402640A3300FF2163
:100C00009CE70123019AA401640AC9B2134095E745
:100C10001B1B1A260121C2E7009B8B469A46002423
:100C20004CE76302E5D500258024E4032C436402ED
:100C3000640A009BFF2181E70195C1E72300202082
:100C4000CB40411A8C40611E8C411C43630704D089
:100C50000F232340042B00D00434630105D5012366
:100C6000019A01211340002468E70123019AA4019D
:100C7000640A1340002161E78023DB031C43640204
:100C8000640A5346FF2159E7EC7801082C790108E2
:100C9000FFFFFFF770B5420045024E024C00C30F44
:100CA0006D0A120E760A240EC90F0120FF2A06D003
:100CB000FF2C03D0A24201D1B54206D070BD002D59
:100CC000FCD1FF2CFAD1002EF8D18B4206D00120A6
:100CD000002AF3D12800451EA841EFE70020EDE7E8
:100CE000F0B5420045024C02C30F48006D0A120ED7
:100CF000640A000EC90FFF2A1ED0FF2821D0002A47
:100D00000AD16E426E41F6B200280FD1002C0DD1EF
:100D10000020002D09D005E0002801D1002C01D0D1
:100D20008B4211D0012158420843F0BD002EF7D06C
:100D3000012001390843F8E7002DDED002204042AF
:100D4000F3E7002CDBD0F9E78242EBDC04DBA542C1
:100D5000E8D80020A542E8D20121581E0843E4E764
:100D6000F0B542004D024C004602760A120EC30F47
:100D70006D0A240EC90FFF2A16D0FF2C18D0002AA6
:100D80000AD170427041C0B2002C15D0002805D0A5
:100D9000012001390843F0BD002C13D0994214D032
:100DA00001205B421843F6E70220002EF3D1E4E76E
:100DB0000220002DEFD1E2E7002DE7D10020002E28
:100DC000E9D0EDE7002DE9D1EAE7A24206DCDFDB5E
:100DD000AE4203D80020AE42DAD3DCE7012049421C
:100DE0000843D8E7F0B54F46D64646464400C0B55E
:100DF000C20F47024802400A844666467B0A480002
:100E0000C90F9A46240E1500DB00000E8946F60035
:100E1000FF2800D18FE001214F464F403900914219
:100E200066D0221A002A00DC9DE000283DD1002E69
:100E300000D18BE0511E002900D0B5E001249B1B9E
:100E40005A0144D59B019F09380002F061F805382A
:100E50008740844200DD96E0041B3A0020200134E4
:100E6000E240041BA7403B005F1EBB41002413432C
:100E70005A0704D00F221A40042A00D004335A0122
:100E800027D50134FF2C00D179E001229B015B0AB8
:100E9000E4B22A405B02E405580AD207204310431B
:100EA0001CBC90469946A246F0BDFF2CE0D08021A4
:100EB000C9040E431B2A7BDC31002020D140821A5A
:100EC0009640721E96410E439B1B5A01BAD45A0794
:100ED000D0D10122DF082A40FF2C33D1002F00D1CE
:100EE000A8E08023DB033B435B025B0AFF24D1E7DE
:100EF000211A00294CDD00282AD0FF2CB8D08020F0
:100F0000C00406431B2900DDAFE030002027C840A5
:100F1000791A8E40711E8E4106439B195901D6D510
:100F20000134FF2C00D185E001227A491A405B0888
:100F30000B4013439CE7002E00D070E76BE73B1E8D
:100F4000C5D100227B025B0AE4B2A3E714008FE75D
:100F5000002E4DD0481E002857D19B1901245A015C
:100F6000B5D50224E0E7002A25D1621CD2B2012ABD
:100F700072DD9F1B7A0135D5F71A0D0064E7012257
:100F800000232A4086E73B00634A241A13406FE798
:100F900000296CD1611CC8B201284EDDFF2949D05F
:100FA0009B195B080C0063E7FF2A41D00A0081E728
:100FB00001269B1B89E7002C1CD0FF2821D0802410
:100FC000E404524223431B2A00DD96E01C00202546
:100FD000D440AA1A93405A1E93412343F31A0400A3
:100FE0000D002DE7002F00D02EE700220024A9E7F6
:100FF0000C003DE7002B58D0D243002AEED0FF284A
:10100000E1D13300FF240D0032E7FF2910D00100A9
:1010100078E7002B6ED0FF24002E00D128E7802235
:101020005146D203114203D06146114200D1330030
:10103000FF241DE7FF2400232CE7002CE9D1002B1F
:1010400063D0002E00D113E79B195A0100D43EE76C
:10105000314A0C0013400BE7002C1ED1002B2FD17E
:10106000002E4FD033000D0002E7012655E7002C7B
:101070001FD1002B43D0C94300290BD0FF2839D002
:101080001B2944DC1C002027CC40791A8B40591EB8
:101090008B4123439B19040040E7002B1AD1002EFB
:1010A00024D180270022FF031BE7330004000D003A
:1010B000DEE6FF281ED08024E40449422343DFE714
:1010C000002E00D1D4E69F1B7A0100D437E7F31A33
:1010D0000D00CDE6FF24002E00D1C9E68022504647
:1010E000D2031042A4D060461042A1D133000D00BB
:1010F000FF24BDE63300FF24BAE601236EE7330088
:101100000400B5E6002700221CE73300B0E6012307
:10111000C0E7C046FFFFFF7DFFFFFFFB70B5002863
:1011200030D0C317C4185C40C50F200001F0F0FE9A
:101130009E231B1A962B0DDC9622D21A94402A006D
:101140006402640ADBB26402DB05600AD20718435A
:10115000104370BD992B19DC9922D21A002A29DD7F
:1011600094402200144C1440510704D00F210A402F
:10117000042A00D00434620113D4A401640ADBB24F
:101180002A00E0E7002200230024DCE705222100FA
:10119000121AD140B922D21A9440621E94410C43D3
:1011A000DAE7054B2A001C409F23A4011B1A640A9E
:1011B000DBB2C8E72200D5E7FFFFFFFB10B5041E36
:1011C00027D001F0A5FE9E231B1A962B0ADC96223F
:1011D000D21A94406402640ADBB26402DB05600A3E
:1011E000184310BD992B17DC9922D21A002A27DD4B
:1011F00094402200134C1440510704D00F210A40A0
:10120000042A00D00434620112D4A401640ADBB2BF
:10121000E3E700230024E0E7B9222100D21A91403D
:101220000A00511E8A410521091ACC401443DBE70C
:10123000044B1C409F23A4011B1A640ADBB2CCE7B9
:101240002200D7E7FFFFFFFBF8B54546DE465746CD
:101250004E460C03E0B54E00C90F88460D00610AEA
:10126000440F0C43C70019035800DB0F9B464B0A81
:10127000510F0B43760D400D1900D200D84500D117
:10128000AEE0351A002D00DCF6E000280FD1134344
:1012900000D1DBE06B1E002B00D037E1BA1A974279
:1012A000BF41641A7F42E41B0126170024E0C64BAD
:1012B0009E424DD080231B041943382D00DD07E1E9
:1012C0001F2D00DD38E12020431B9A460B005046BD
:1012D0008340994613004846EB40184303005046AC
:1012E0008240501E8241E9401A43BA1A611A97425D
:1012F000A441170064420C1B230262D56402650AF4
:10130000002D00D1DFE0280001F002FE0300083BC1
:101310001F2B00DDD2E020223C00D21A9D40D44099
:101320009F4025439E4200DDC4E09E1B731C1F2B83
:1013300000DDF1E0202238002900D21AD840914087
:1013400097402C000143781E8741DC4000260F4364
:101350007B0709D00F233B40042B05D03B1DBB422C
:10136000BF417F42E4191F0023022CD5964B013662
:101370009E4200D19AE04546944BFF081C4060070E
:10138000760564020743240B760D00212403230B0A
:101390000C0D8F4A24051C431440330523435B0086
:1013A000ED075B082B43380019003CBC904699467A
:1013B000A246AB46F8BD6446044300D111E20400E6
:1013C00067467B07C6D145466007FF080743E40828
:1013D0007D4B9E4230D024037605240B760DD4E756
:1013E000331A9A46002B78DD002831D076488642A1
:1013F000AED08020000401435346382B00DCE9E0E6
:101400000A43511E8A410021D219BA42BF4109192B
:101410007C4217000C192302D3D56B4B01369E4238
:1014200000D13AE10120694B1C407B0807401F4373
:10143000E007074364088BE723003B4300D1CBE17F
:101440008022120314432403240B9EE72E007FE71F
:101450000800104300D1B4E0581E002800D0DEE0A0
:10146000BA18BA429B4164185B42E418170001267F
:101470002302A6D50226D5E7002D6ED1701C4005AB
:10148000400D012800DCF9E0B81A8446874280410B
:10149000E51A40422D1A280200D489E0D71BBA422F
:1014A00092411C1B5242A51AD84629E74546002402
:1014B00000276AE7454CF61A2C4049E73D002838DA
:1014C000854000272EE7380001F022FD20301DE77F
:1014D0000A43511E8A41002107E7002B00D0F3E0A8
:1014E000701C43055B0D012B00DCADE0364B9842D0
:1014F00000D1D1E0BA18BA42BF4164187F42E41962
:10150000E707520817436408060021E72E48854282
:1015100000D193E01D00D0E629001F3EF140202BB2
:1015200000D18DE04022D31A9D402F437D1EAF4154
:1015300000240F43002644E72B000800203BD8403E
:101540000300202D00D17DE04020451BA9400A4327
:10155000511E8A4100211A43C7E6002E50D01A4E70
:10156000B04257D080266B429946360434434B46EE
:10157000382B00DDD6E01F2B00DD35E12026F51AE3
:101580002600AE40B2463E00DE40AC463500564630
:101590002E436546AF407D1EAF41DC403743D71B2D
:1015A000BA4292410C1B5242A41A0600D846A3E646
:1015B000644667462C4300D0A2E60025002600279B
:1015C00006E71E00C4E6C046FF070000FFFF7FFFDE
:1015D000FFFF0F801F2B63DC2020C31A08009840F8
:1015E0009C46834653461000D84003005846184393
:1015F00063469A40531E9A4153460243D94003E73B
:1016000026003E4306D0EB439946002BC7D0944EAC
:10161000B042ACD10C0017000600D84698E6904BBB
:101620009A450BD08246E7E6002800D09EE01800DD
:10163000104300D1E9E01C001700D846884E87E629
:10164000002572E7002182E723003B43002E00D0F3
:10165000ABE0002B00D1E7E00B00134300D177E6AD
:10166000BA18BA42BF4164187F42E419230200D479
:10167000F2E07C4B17001C40060069E6200038436E
:10168000002ED1D100285BD11C00144300D1A8E06A
:101690001C001700D8465BE606000024002797E6EA
:1016A00050460B002038C34099465346202B00D1AA
:1016B00095E0402350461B1A99400A43511E8A4127
:1016C0004B4600211A439FE6002E30D126003E43B0
:1016D00067D0DB439A46002B1CD0614EB04260D0ED
:1016E0005346382B00DD96E01F2B00DD9FE02026BF
:1016F000F31A26009E409C46B34653463E00DE4009
:1017000033005E461E4363469F407B1E9F41534607
:10171000DC403743BF189742924164185242A418E4
:10172000060078E627437C1EA741002437E74C4E8D
:10173000B04236D080265B4236049A463443CFE727
:101740001800104300D103E6B81A84466745AD413E
:10175000E01A6D42401B050200D42CE6D71BBA42AA
:1017600092411C1B5242A41AD846F1E518001043BE
:1017700000D163E7F808670707438020E408000307
:10178000044208D0DD08054205D1D20859071143AB
:101790000F002C00D8467B0FE4001C43FF00304EA6
:1017A000D6E50C0017000600D2E5002B38D00B0060
:1017B000134300D142E7F808670707438020E40895
:1017C00000030442E7D0CB080342E4D1D208490722
:1017D00011430F001C00DEE700270024D5E500219F
:1017E0006BE700250027F3E54E462500203EF54037
:1017F0004B462E00202B2DD04025ED1AAC40274320
:101800007C1EA74100243743C9E680240025240319
:10181000134E0027DCE527437C1EA741002479E70F
:101820000C0017000E4E93E50C00170090E556468D
:101830002300203EF34099465346202B0ED04023F0
:1018400056469B1B9C4027437C1EA7414B460024C9
:101850001F435FE70024D2E71700B2E50024F2E758
:10186000FF070000FFFF7FFFF0B557464546DE4605
:101870004E46E0B54C000E0387B0834692461D00ED
:101880008046360B640DCF0F002C4FD06F4B9C421F
:1018900035D08023420F1B04F6001343334399468F
:1018A000C30098466A4B00269C4600236444039379
:1018B0002B031B0B9B466B00ED0F50465B0D0195F8
:1018C0005ED0624A934253D05A46D1008022400FE4
:1018D000120402430A4393465246D1005C4A94469E
:1018E000002263443800684084460290E41A16439C
:1018F0000F2E00D9B4E0574BB6009B599F4603000A
:10190000334399466CD1002398460233082603934B
:10191000CEE7CB464146039A0197022A65D1019B47
:101920004A4C9C460023002298466BE00300334358
:1019300099464ED0002E00D1BCE1300001F0E8FA0B
:1019400003000B3B1C2B00DDACE11D22D31A5A46D1
:101950000100DA4008398E401300334399465B4654
:101960008B40984600233C4C0026241A03939FE7A3
:1019700051465A46114329D1002293460232B1E71B
:10198000594601431ED05B46002B00D19EE15846CC
:1019900001F0BEFA03000B3B1C2B00DD8FE10200BF
:1019A0005946083A91408B461D21CB1A5146D940E1
:1019B0000B0059460B4351469B469140264B002253
:1019C0001B1A8FE7002301229B468BE75146032217
:1019D00088E700239846013304260024039367E731
:1019E0000323B14603930C2662E7032A00D15CE28D
:1019F000019B012A00D0E4E113409C46002300240F
:101A00000022984600211203130B0A0D12051A43F7
:101A10002305124C40462240134362465B00D20726
:101A20005B081343190007B03CBC90469946A24698
:101A3000AB46F0BD002380229C4612039846034C1F
:101A4000E0E70023014C00229846DBE7FF07000097
:101A500001FCFFFF6C7901080DFCFFFFFFFF0F8009
:101A6000D94500D939E100D134E1002346464D463D
:101A70009A46013C5B460A0E1B021A430B02170CE6
:101A8000039313041B0C3900280090460193FEF7C2
:101A90003BFB0200019B83465A43280039009146D4
:101AA000FEF7B8FB350C09040D43A9450DD95B467B
:101AB0004544013BA84500D93AE1A94500D837E1A2
:101AC00002235B429C464544E3444B46EB1A3900F3
:101AD00018000493FEF718FB019B050043433900EF
:101AE00004989946FEF796FB330409041B0C0B433C
:101AF000994509D943446A1E984500D91AE1994588
:101B000000D817E1023D43444A469B1A5A46120444
:101B10002A4303999346100C0A0C914609045A462D
:101B2000090C4E460D001204120C45430591514319
:101B30007243704352190E0CB218954203D9802596
:101B40006D02AC466044150C09041204090C2818F7
:101B50005218834200D2CEE000D1C8E01D1A53468D
:101B60009E1AB24592415242AB1A9A46984500D10C
:101B700017E139001800FEF7C7FA019B050043433F
:101B8000390050460493FEF745FB04980B04310CD2
:101B90001943884209D941446B1E884500D907E1A1
:101BA000884200D804E1023D4144049BCB1A18004E
:101BB00039000493FEF7A8FA019B8246434339009B
:101BC00004980193FEF726FB01980B043104090CDD
:101BD000194388420DD953464144013B884500D9F9
:101BE000E8E0884200D8E5E002235B429C4641449D
:101BF000E244019B2D04CE1A51462943059D4F46D0
:101C00002A000B04080C1B0C5A4345437B437843C2
:101C10005B19170CFB189D4203D980256D02AC4659
:101C200060441D0C12041B04120C28189B188642D9
:101C300000D293E000D18EE001231943A04BE318BA
:101C4000002B00DC99E04A0700D09EE05A46D20102
:101C500006D55A469B4B1A4080239346DB00E31877
:101C6000994A934268DD0123029A984C1A40002356
:101C7000944698460022C5E680224B461203134242
:101C80000AD05B46134206D11A431203120BAC462C
:101C900088468E4CB6E64B461A431203120BBC46DE
:101CA0008A4CAFE603005A46283B9A4000239146EF
:101CB000984657E6584601F02BF9203040E60300DD
:101CC0005246283B9A400021934677E601F020F9DE
:101CD00020305FE6884500D2C7E64B46DE075D0848
:101CE00043465B081E434346DB079A46C2E600258F
:101CF000924500D333E7039E5946B446E244B245C9
:101D0000AD416D424544EB180139984507D29842E0
:101D100000D97FE000D1BCE01D1A8B461FE7984533
:101D2000FAD1039D5545F2D943468B461D1A16E755
:101D30009B46CAE61500E7E65A46C90852070A4319
:101D40005B0590465C0D5A460123029952021940E8
:101D5000120B8C4656E6002B00D16FE746444A1E14
:101D6000B04529D91100864200D065E7039A934215
:101D700000D061E762E7012149420120C21A382AF6
:101D800021DD029B03409C4638E60F220A40042ACC
:101D900000D15BE70A00111D9142924152429344E7
:101DA00054E7474BE318002BE5DD01225242F2E7EE
:101DB0001D00FAE69A461CE7B04239D86ED01100F1
:101DC0003AE702933AE71F2A3CDC20239B1A0C00D7
:101DD0005846994098404B1E99415B46D440D340A9
:101DE000204308431A00430709D00F230340042B64
:101DF00005D00100081D88429B415B42D2181302A6
:101E00003AD50123029A01241A40002394469846A9
:101E10000022F7E5022149428C46039DE344AC468B
:101E2000E244AA45AD416D424544ED182D1A96E6AF
:101E30008A1E03994D008D428941494241447618DA
:101E400003958FE71F204042C31A5846D84003002D
:101E5000202A28D040205D46821A954029434A1EF8
:101E600091411943072300220B4009D00F23002280
:101E70000B400800042BBDD1010053075202120B86
:101E8000C9081943012388460299002419408C4649
:101E9000B8E55245BED88B46002560E6039D9D42BD
:101EA000C6D3110062E70025D8E780225B46120303
:101EB0001A43019B1203120B9C468846034CA1E572
:101EC000FF030000FFFFFFFEFE070000FF0700000A
:101ED000F0B54F464646D6465C00C0B51F03DB0F43
:101EE0009A46174B0E034D0084468046360B6D0D07
:101EF000C90F91463F0B640D01209D4208D09C42C2
:101F000001D0A5420BD01CBC90469946A246F0BD1C
:101F100063463343F7D1AC42F5D13A43F3D10120C4
:101F2000BE42F0D1C845EED1514507D0002DEAD1CF
:101F300063461E433000461EB041E4E70020E2E75E
:101F4000FF070000F0B54546DE4657464E46E0B571
:101F50001F033D0B2C4F0E034C00AB465D00844627
:101F6000360B640DC90F90466D0DDB0FBC422AD0B5
:101F7000254FBD422DD0002C0FD1304307008146A4
:101F800078427841C0B2002D17D15F463A4314D150
:101F90004B460020002B0AD006E0002D02D1584607
:101FA000024301D0994218D04842012108433CBC69
:101FB00090469946A246AB46F0BD0028F2D00120DB
:101FC000013B1843F3E737000743D1D002204042DA
:101FD000EDE75F461743CED0F8E7AC42E4DC03DA26
:101FE000481E01210843E2E75E45DDD806D0002007
:101FF0005E45DCD20123481E1843D8E7C445D3D838
:102000000020C445F6D3D2E7FF070000F0B54E46E6
:102010004546DE4657465C00E0B51F03DB0F994698
:102020002A4B0E034D00C90F8446360B6D0D8B46AF
:1020300090463F0B640D9D4220D0244B9C4222D001
:10204000002D12D1304343424341DBB2002C1FD05C
:10205000002B0CD04B460120013B034318003CBC35
:1020600090469946A246AB46F0BD002C16D0CB4513
:1020700017D05B46594201230B43EFE7310002239F
:102080000143EBD1D9E7390002231143E6D1D7E769
:102090003A43DDD100230028E0D0EAE73A43E6D115
:1020A000E7E7A542E5DC05DBBE42E2D807D0002326
:1020B000BE42D3D25946012301390B43CEE7C44572
:1020C000D7D80023C445F5D3C8E7C046FF070000B2
:1020D000F0B557464546DE464E46E0B50C039846F9
:1020E0004E00230B87B0070092469B46760DCD0F1E
:1020F000002E6BD06D4B9E4235D080245B46420F44
:102100002404DB0014431C43C3009946684BA346D8
:102110009C46002300276644029343461C035A0052
:10212000DB0F5046240B520D984600D176E05F4BF2
:102130009A426DD08023410F1B040B435C49E4009D
:102140008C461C43C300002062444146B6186940D7
:10215000721C0191944607430F2F00D9B0E0554AF5
:10216000BF00D25997465B460343994600D087E0AB
:1021700000239B46023308270293CEE74246019292
:10218000022867D0032800D10EE2012800D062E1C6
:10219000002300240022994601990140CDB200217C
:1021A00012030B0D120B1B051343434A2405134066
:1021B0001C436400ED0764082C434846210007B027
:1021C0003CBC90469946A246AB46F0BD03439946B7
:1021D0004FD05B46002B00D189E1584600F098FEB5
:1021E00003000B3B1C2B00DD7AE11D22D31A3A00C1
:1021F00001005C46DA4008398C4013008F402343CD
:102200009B46B94600232D4E0027361A029384E7D9
:10221000534623432AD10024022096E75346234302
:1022200020D0002C00D157E1200000F071FE030007
:102230000B3B1C2B00DD49E11D21CB1A514602004E
:10224000D9405346083A944093400C431B4A121A13
:1022500000207AE70125019B144C1D400023002239
:1022600099469CE70024002201206EE75346032094
:102270006BE700239B4601330427002602934CE7BB
:10228000032381460C27029347E780220023002581
:1022900012039946054C82E75C464B4602986FE76D
:1022A0005C464B46019502986AE7C046FF0700006E
:1022B00001FCFFFFAC790108FFFF0F800DFCFFFF61
:1022C0004A464946170C1A0C1B041B0C080419003B
:1022D000000C41431500884619007D43794303955E
:1022E00089462900150045434D44029545462D0C6D
:1022F000AA46029D5544A94506D98A46802149022D
:102300008946CA4451460391290C04914146090467
:102310002D04090C88462900250C24044144240C72
:102320000591210041438846210079438A4668434C
:10233000414650448146080C48446F43824503D9C6
:102340008021490289464F44010C8946390049449D
:10235000029141460F0404993F0C88460004C019BD
:1023600080444146049159460F0C0904090C8846E3
:1023700059438A4639005143894641464A435146AA
:10238000090C8B467B43D2185A44934203D98023CD
:102390005B029B46D94451460904090C8A464146D2
:1023A00061437C43130C12044B445244A1468A46B9
:1023B0003C0041466C434D4351464D440F0C7D1942
:1023C000A94503D98021490288464444049F0399C2
:1023D000B84641448B468345804141428846514638
:1023E00008042F04000C3F1858460299101889461B
:1023F000904292414F44BA46524299469346C24453
:10240000D144CB448F42BF41C245894199459B414C
:10241000934592417F4249422D0C52420F435B4209
:1024200013437F19FF185B463C19DB0D059A6402C4
:102430001C43430213435D1EAB415A46C00D034388
:1024400052021343E20156D501205A0803401343B8
:10245000E207134364085A48604400284DDD5A07D8
:1024600009D00F221A40042A05D01A1D9A429B4116
:102470005B42E4181300E20104D58020514AC000F9
:1024800014406044504A904200DDE3E60125DB0839
:1024900062071A436402019B9146220B4405640DB6
:1024A0001D407CE6802259461203114208D0144296
:1024B00006D122431203120B45469946434C6EE661
:1024C0005B461A431203120B404C68E60300544665
:1024D000283B9C400023B9E600F01AFD2030A6E618
:1024E0000300283B9F400023BB4699468AE600F044
:1024F0000FFD203074E6B446ADE701252A1A382ACC
:1025000006DD019B00241D4000230022994646E67B
:102510001F2A21DC20252000AD1A1E00AB40A84058
:10252000D6405D1EAB4130431843D440430709D029
:102530000F230340042B05D00300181D98429B4134
:102540005B42E418230221D50125019B01241D4093
:1025500000230022994622E61F2521006D42281AF9
:10256000C1400800202A1DD05F35AA1A9440234399
:102570005C1EA341072503431D400022002D09D006
:102580000F2200241A401800042AD6D10300650740
:102590006402220BDB082B4301259946019B002492
:1025A0001D40FCE50024E2E78022012512032243BE
:1025B00001991203120B0D409946044CEFE5C046F9
:1025C000FF030000FFFFFFFEFE070000FF07000003
:1025D000F0B54646D6464F460C03C0B5CD0F4E006B
:1025E000610A440F0C43C1005800400D84468A46DE
:1025F0000F001903500F490A0143C648760DA8463B
:10260000DB0FD200844500D1D8E001204340AB422B
:1026100000D1A6E06046351A002D00DC05E1002857
:1026200010D10B00134300D1D7E06B1E002B00D05C
:102630004BE153469F1ABA458041641A4042241A1E
:1026400001261EE0B34B9E4248D080231B04194351
:10265000382D00DD19E11F2D00DD4CE120230F0096
:102660005B1B10009A409F40E840531E9A41E9408E
:10267000074317435346DF1B611ABA45A44164421E
:102680000C1B230200D4C5E06402650A002D00D1B2
:10269000F6E0280000F03CFC0300083B1F2B00DDA7
:1026A000E9E020223C00D21A9D40D4409F402543BF
:1026B0009E4200DDDBE09E1B731C1F2B00DD0AE148
:1026C00020223800D21A290097402C009140D8408F
:1026D0007A1E9741DC40002601430F437B0709D057
:1026E0000F233B40042B05D03B1DBB42BF417F4223
:1026F000E4191F00230225D5864B01369E4200D1E6
:10270000AFE0854B01251C4043466207FF08640289
:1027100076051743240B760D1D4000212403230B5F
:102720000C0D7E4A24051C431440330523435B00F3
:10273000ED075B082B43380019001CBC90469946F6
:10274000A246F0BD012543466207FF081743E4088F
:102750001D40704B9E4236D024037605240B760D27
:10276000DBE76346F31A002B00DC94E060460028A8
:1027700035D068488642B1D080273F043943382B92
:1027800000DCFDE00A43170000217A1E9741574400
:1027900057458041091944420C1923023AD55D4B33
:1027A00001369E4200D14BE101225B4B1C407B086D
:1027B00017401F43E207174364088FE708001043E0
:1027C00000D024E721E723003B4300D1B9E1802278
:1027D000120314432403240B9FE72E007EE7080016
:1027E000104300D1CAE0581E8446002800D0E7E01C
:1027F0005244524580416418404224181700012673
:10280000230207D50226CFE764462C4300D1B3E16B
:102810002C0067467B0700D062E76307FF081F4371
:1028200001254346E4081D4093E7002D78D1751C2F
:102830006D056D0D012D00DCF2E05046801A8245D9
:10284000BF41651A7F42ED1B8446280200D48CE00C
:102850005046171ABA4292410C1B5542651B9846C6
:1028600014E70125434600241D40002755E72A4C64
:10287000F61A2C4032E73D0028388540002717E73C
:10288000380000F045FB203006E70A43170000211E
:102890007A1E9741EEE6002B00D0E5E0731C9C46C3
:1028A0005B055B0D012B00DC9FE01A4B9C4500D1C2
:1028B000C5E0524452458041641840422418E7075D
:1028C000520817436408664608E71248854200D15B
:1028D00085E01D00BCE629001F3EF140202B00D101
:1028E0007FE04022D31A9D402F437D1EAF4100243C
:1028F0000F4300268EE72B000F00203BDF40202DEA
:1029000071D040235D1BA9400A43511E8A4100211A
:102910001743AFE6FF070000FFFF7FFFFFFF0F80B9
:10292000002E3ED0B34EB44545D0802636046D42CD
:102930003443382D00DDA8E01F2D00DD1FE12026E7
:1029400027005046761BB740E84007435046B0404A
:10295000461EB041EC403843171ABA4292410C1B54
:102960005242A41A664698468BE6644667462C4354
:1029700000D08BE6002500260027EAE61E00ADE623
:102980001F2B60DC2027F81A0F00844687401000B8
:10299000D840074360468240501E8241D9401743C9
:1029A000F5E626005046064305D0ED43002DD3D072
:1029B000904EB445BDD10C001700664698468DE692
:1029C0008C4883420BD06346D9E6002D00D096E0B8
:1029D0000800104300D1E2E00C0017009846854E35
:1029E0007CE6002580E700218EE723005046034364
:1029F000002E00D0A8E0002B00D1DEE00B00134336
:102A000000D16BE65244524580416418404224187C
:102A10001700230200D4FDE6774B66461C405DE6B6
:102A2000250050460543002ECFD1002D4FD10C007C
:102A3000144300D1A0E00C00170098464EE666460D
:102A40000024002785E61F000800203FF84007000B
:102A5000202B00D18EE04020C31A99400A43511E1A
:102A60008A410021174392E6002E14D126005046D9
:102A7000064362D0DB43002B5CD18718974292411A
:102A800064185242A418664687E650462043441E06
:102A9000A041002460E7574EB4454ED0802636044E
:102AA0005B423443382B00DD7FE01F2B00DD8BE0E1
:102AB000202627005046F61AB740D8400743504614
:102AC000B040461EB0410743DC40BF18D6E70D00BA
:102AD000154300D102E65046801A8245BF41651A6F
:102AE0007F42ED1B8446280200D48DE65046171A1B
:102AF000BA4292410C1B5242A41A9846EEE50D00D0
:102B0000154300D16BE750466707C0080743802094
:102B1000E4080003044207D0CD08054204D12C008C
:102B20009846D70849070F437B0FE4001C43FF007A
:102B3000304ED3E52F4EB445B4D10C001700664695
:102B4000CCE500270024E8E5002B39D00B00134327
:102B500000D144E7C008670707438020E40800036A
:102B60000442E1D0CB080342DED1D70849070F4326
:102B70001C00D9E7002171E700250027E9E52E00B8
:102B80002700203EF740202D2FD04026751BAC405B
:102B900050462043441EA04100243843DCE68024F4
:102BA00000252403134E0027D3E550462043070099
:102BB000781E87410024BF1860E70C0017008DE5E0
:102BC0000C0017000B4E89E51E002700203EF74041
:102BD000202B0CD04026F31A9C4050462043441E24
:102BE000A04107430024BF1848E70024D0E7002491
:102BF000F3E7C046FF070000FFFF7FFF30B5134D2E
:102C00000A034B00120B5B0DC90F0024AB4210DD11
:102C10000F4CA3420FDC80240E4D64032243ED1AB7
:102C20001F2D0BDD0C48C31ADA405442002900D195
:102C30001400200030BD094BCC18FAE7084CE840DE
:102C4000A44663449A400243EFE7C046FE030000F7
:102C50001D0400003304000013040000FFFFFF7F89
:102C6000EDFBFFFF70B5002830D0C317C4185C40DF
:102C7000C50F200000F04CF9174B184A1B1AD21A46
:102C80001F2A18DD164AD21A9440002224035B053D
:102C9000240B5B0D0021100024030A0D240B1205E8
:102CA0002243104C1B05224013435B00ED075B08D9
:102CB0002B43190070BD210091400A000B21081A16
:102CC000C4405B052403240B5B0DE3E700250023D0
:102CD00000240022DEE7C0461E040000330400008A
:102CE00013040000FFFF0F8010B5041E28D000F071
:102CF0000FF9154B154A1B1AD21A1F2A15DD144A53
:102D0000D21A9440002224035B05240B5B0D0021A2
:102D1000100024030A0D240B120522430D4C1B0541
:102D2000224013435B00590810BD210091400A0066
:102D30000B21081AC4405B052403240B5B0DE6E756
:102D4000002300240022E2E71E04000033040000F8
:102D500013040000FFFF0F804100090E4B1C70B5EB
:102D6000DBB24602750AC40F012B14DDE0239B0081
:102D70006D07360BCB1800210A0D280012051C4DDB
:102D800032435B052A405B0813435B00E4075B08A2
:102D90002343190070BD002914D1002D1ED0280036
:102DA00000F0B6F80A281CDC0B232A001B1ADA40B4
:102DB000030015339D400F4B12031B1A5B05160BC6
:102DC0005B0DD8E7002D06D0320B802636036D0749
:102DD0001643094BCFE7084B0026CCE7002300261B
:102DE000C9E703002A000B3B9A400025E3E7C046F1
:102DF000FFFF0F8089030000FF070000F0B54C00C3
:102E0000640D0B03621C450F5B0A52052B43C90F6F
:102E1000C500520D012A28DD3A4AA618FE2E1BDCF9
:102E2000002E3EDD80010200501E82416D0F2A43BC
:102E3000DB0013435A0704D00F221A40042A00D0A3
:102E400004338022D2041A405AD00136FF2E03D018
:102E50009B015B0AF4B201E0FF2400235802E40561
:102E6000400AC90720430843F0BD002C07D01D438A
:102E7000F2D08020DB0080040343FF26DAE72B43F7
:102E800003D00523DB08FF2C03D05B025B0AE4B20E
:102E9000E4E7002B32D08020C00303435B025B0ACF
:102EA000DCE73200173214DB80221E2712041343A2
:102EB000BF1B1F2F0FDC144A944664442A00A54010
:102EC0002E00A340751EAE41FA4033431343002643
:102ED000B0E70024D5E702225242961B1A00F240C6
:102EE000202F09D0094884466444A3402B435D1E2B
:102EF000AB41002613439DE70023F7E70023ADE72E
:102F00003400BFE780FCFFFF82FCFFFFA2FCFFFF55
:102F10001C2101231B04984201D3000C10391B0A09
:102F2000984201D3000A08391B09984201D30009CD
:102F3000043902A2105C40187047C0460403020224
:102F400001010101000000000000000010B500298F
:102F500003D1FFF7DDFF203002E0081CFFF7D8FFA8
:102F600010BDC04680B582B000AF786003F0F4FABF
:102F70000D4B00221A600C4B7A685A600A4B0122F2
:102F80009A600A4A084B1100180003F029FC031E3E
:102F900004D0074B180013F029F9FAE703F004FBFB
:102FA000C046BD4602B080BD940100208C010020C7
:102FB0008477010880B584B000AF78600023FB609F
:102FC0000023BB6003F0C8FA134BFB6017E0BB683B
:102FD0009B007A68D3181A68FB681900022003F076
:102FE0007FFA031E06D1FB680433FB60BB68013324
:102FF000BB6004E0094B180013F0F8F8FAE711F091
:1030000077FB03001A00BB689A42E0DC03F0CCFABD
:10301000C046BD4604B080BD00900108A0770108FD
:1030200080B584B000AF786039600023FB6003F0A6
:1030300093FA7B68FB603A68FB681900022003F092
:103040004FFA031E04D0054B180013F0CFF8FAE72F
:1030500003F0AAFAC046BD4604B080BDA0770108BF
:1030600080B582B000AF786003F076FA7B681A68AA
:10307000044B1A6003F098FA024B1B681800BD4617
:1030800002B080BD9001002080B582B000AF7860B2
:10309000034B7A681A60C046BD4602B080BDC04688
:1030A000A402002080B584B000AF7860344B7A6809
:1030B0001A60344A344B110018000EF08CFD314A6E
:1030C000324B110018000EF086FD2E4A304B1100D5
:1030D00018000EF080FD2F4B1B681B6801209847DD
:1030E00001F074FB00F034F9002001F0A3FB294B40
:1030F0001B689B68284A100098470F23FB18002282
:103100001A7028E00F23FB181A78244913005B007B
:103110009B185B5C180001F0DDFB0F23FB181A788D
:103120001E4913005B009B18CB18013318780F233E
:10313000FB181A78194913005B009B18CB1802334F
:103140001B78190001F01EFC0F23FB181A780F23BF
:10315000FB1801321A700F23FB181B780F2BD1D9E3
:10316000002001F0B7FB0E4B00221A71094B1B68BF
:103170005B689847030002331800BD4604B080BD69
:10318000A0010020FD4B0008941200202413002011
:10319000A8120020A402002000000020EC79010801
:1031A000BC12002080B500AF024B1B791800BD4651
:1031B00080BDC046BC12002090B587B000AF7860DB
:1031C0001A4B7A689A607B6819491800FCF79CFFD3
:1031D00003007B617B69164A53437A68D31A3B61CB
:1031E0007B691C023B691B02124A944663441049E6
:1031F0001800FCF789FF0300E318FB60FB681B0C59
:10320000DBB21900062001F0BDFBFB681B0ADBB234
:103210001900072001F0B6FBFB68DBB2190008209B
:1032200001F0B0FBC046BD4607B090BDBC12002007
:10323000093D0000841E000090B587B000AFB96062
:1032400011007B600F23FB18021C1A700C23FB1863
:103250000A1C1A801723FB1801221A701423FB186A
:1032600000221A8000233B610F23FB181B781800F3
:1032700001F030FBBB681800FFF79EFF052001F04E
:10328000D9FA01200EF0D8FB0EF09DFE03003B6141
:1032900018E01423FC180F23FB181B78180001F00A
:1032A00049FA030023801423FA180C23FB18002189
:1032B000525E00215B5E9A4204DD1723FB18002258
:1032C0001A7007E03B6918000EF08DFE02007B6863
:1032D0009A42DED300F06AFF1723FB181B78180010
:1032E000BD4607B090BD80B582B000AF00233B6003
:1032F000012001F0EFFAFF21112001F043FB05202E
:1033000001F098FAFB1D00221A7015E001200EF062
:1033100093FB2C2001F04AFB03001A0001231A4002
:10332000FB1D1B789A4013003A6813433B60FB1D5A
:103330001A78FB1D01321A70FB1D1B781F2BE5D973
:1033400000F034FF3B681800BD4602B080BD0000AD
:1033500090B587B000AF1723FC18092001F026FBB9
:1033600003002370062001F021FB03001C0407204A
:1033700001F01CFB03001B021C43082001F016FB9C
:10338000030023433B613B691B0AFB60FB681B0294
:103390003A69D31ABB60FB68254A5A43BB68244983
:1033A0004B4380331B0AD3187B600021092001F0B6
:1033B000E9FA3B2001F0FAFA03001A004023134314
:1033C000DBB219003B2001F0DDFAC0463B2001F0E2
:1033D000EDFA03001A0020231340202BF6D0154BE2
:1033E0001800FFF7E9FE3B2001F0E0FA03001A00A5
:1033F00040231343DBB219003B2001F0C3FAC0465F
:103400003B2001F0D3FA03001A0020231340202BA5
:10341000F6D01723FB181B781900092001F0B2FA27
:103420007B681800FFF7C8FEC046BD4607B090BDD8
:10343000093D000000A1BC3380B584B000AF7860C6
:103440000F23FB1800221A7022E00F23FB181A78B2
:10345000144BD200D2587B689A4212D80F23FB1823
:103460001B785A1C0F4BD200D2587B689A4208D95D
:103470000F23FB181B780B4ADB00D31804331B788F
:103480000CE00F23FB181A780F23FB1801321A7077
:103490000F23FB181B78142BD7D9FEE71800BD4665
:1034A00004B080BD1C7A0108B0B584B000AFB9602B
:1034B0007A6019000F23FB18021C1A700E23FB18E8
:1034C0000A1C1A700F23FB181B78180001F002FA6F
:1034D0000F23FB181B78002B03D0012B00D1E4E055
:1034E00036E2A64BBA685A61A44B7A68DA61A34BFC
:1034F0003A6A9A61A14B2C22BA18222112785A54A6
:103500009E4B3022BA18232112785A549B4B3422F6
:10351000BA18242112785A54984B202220218C4624
:10352000BC446244252112785A54944B2422202111
:103530008C46BC446244262112785A548F4B242274
:10354000BA1812881A842823FB181B881800FFF762
:1035500089FB04000D007868FFF7C6FB02000B0032
:1035600000208749FEF780F902000B0010001900C7
:103570000022844BFEF7ACFD02000B002000290066
:10358000FEF7A6FD03000C001800210000227E4B70
:10359000FEF79EFD03000C0018002100FCF7C2FF9F
:1035A0000200764BDA627868FFF79EFB03000C009E
:1035B0001A00230000207549FEF756F903000C009D
:1035C00018002100FCF7AEFF03009BB27B607B6814
:1035D0001B0ADBB21900022001F0D4F97B68DBB2D0
:1035E0001900032001F0CEF9BB681800FFF724FF93
:1035F00003001900122001F0C5F93B6A1800FFF71B
:103600001BFF03001900132001F0BCF92423FB1851
:103610001B881B0A9BB2DBB21900252001F0B2F90E
:103620002423FB181B88DBB21900262001F0AAF91D
:103630002C23FB181B78002B07D03023FB181B789A
:103640001900322001F09EF903E0FF21322001F041
:1036500099F9302001F0AAF903005BB26F22134000
:103660005AB22C23FB181B78002B01D0002301E059
:1036700080235B4213435AB23423FB181B781B018F
:103680005BB213435BB2DBB21900302001F07AF970
:10369000312001F08BF903001A0040231343DBB201
:1036A0001900312001F06EF952E1BB68022B00D9FC
:1036B000FEE7BB680733BB60304BBA685A642F4BD8
:1036C0007A689A642D4B0E22BA184D2112785A54FA
:1036D0002A4B2422BA184E2112885A52274B2C22E8
:1036E000BA18502112785A54244B3022BA1851215A
:1036F00012785A54214B3422BA18522112785A5453
:103700001E4B3822BA18532112785A541B4B3C22B4
:10371000BA18542112785A54184B202220218C4672
:10372000BC446244552112785A54144B242220215F
:103730008C46BC446244562112785A547B680C2B48
:1037400002D90C237B6004E07B68052B01D806239B
:103750007B60BB68072B05D17B680B2B08D07B688F
:103760000C2B05D0BB68082B12D17B680C2B0FD11A
:10377000024B4C22012199540EE0C046BC1200209D
:103780000000F03F0000204000408F4080847E41D8
:10379000714B4C22002199541D2001F007F9BB68A0
:1037A000DBB21B01DAB20E23FB181B78DB18DBB28D
:1037B0001343DAB22C23FB181B781343DBB2190036
:1037C0001D2001F0DFF81E2001F0F0F803001A00C0
:1037D00008231340DAB27B68DBB21B01DBB2134370
:1037E000DAB23423FB181B789B00DBB21343DAB246
:1037F0002823FB181B881B0A9BB2DBB203210B405A
:10380000DBB21343DBB219001E2001F0BBF8262007
:1038100001F0CCF803005BB2082293435AB24E4B3E
:103820004C215B5CDB005BB213435BB2DBB2190083
:10383000262001F0A7F82823FB181B88DBB219000B
:103840001F2001F09FF82423FB181B881B0A9BB242
:10385000DBB21900202001F095F82423FB181B8807
:10386000DBB21900212001F08DF82C23FB181B7806
:10387000002B06D03023FB181B781900222001F002
:1038800081F8354B53229B5C002B13D0442001F070
:103890008DF803001A0080235B421343DBB219004A
:1038A000442001F06FF82C4B54229B5C190024201B
:1038B00001F068F8BB68092B0DD1274B9B68274A9C
:1038C000934208D90221362001F05CF864213A20A5
:1038D00001F058F80FE0BB68092B08D1022136200F
:1038E00001F050F87F213A2001F04CF803E0032169
:1038F000362001F047F87B68062B14D1312001F007
:1039000055F803005BB2072293435BB205221343D1
:103910005BB2DBB21900312001F034F80C21372002
:1039200001F030F813E0312001F040F803005BB201
:10393000072293435BB2032213435BB2DBB219004D
:10394000312001F01FF80A21372001F01BF8C04692
:10395000C046BD4604B0B0BDBC12002040DD4A1FC9
:1039600090B585B000AFBA607B600F23FB18021CD6
:103970001A700E23FB180A1C1A700F23FB181B78F1
:10398000180000F0A7FFDC4B1B68DB680E22BA189A
:10399000127852B2100098470F23FB181B78002BA7
:1039A00003D0012B00D1A4E0A2E1D44B0E22BA181F
:1039B00012781A73D14BBA681A61D04B7A685A617F
:1039C000CE4B3A6ADA61CD4B2822BA1812881A8493
:1039D000CA4B2C22BA18222112785A54C74B3022D3
:1039E000BA18242112785A54C44B3C22BA18252103
:1039F00012785A54C14B3A6C9A62B868FFF774F95E
:103A00000022BF4BFDF730FF03000C00180021001F
:103A1000FCF788FD03009BB2BB60BB681B0ADBB2EE
:103A20001900042000F0AEFFBB68DBB219000520CE
:103A300000F0A8FF386AFFF757F903000C001A00DE
:103A400023000020AF49FDF70FFF03000C00180012
:103A50002100FCF767FD03009BB23B623B6A1B0A37
:103A6000DBB21900022000F08DFF3B6ADBB21900C7
:103A7000032000F087FF2823FB181B881B0A9BB23A
:103A8000DBB21900252000F07DFF2823FB181B88DE
:103A9000DBB21900262000F075FF302000F086FF11
:103AA00003005BB26F2213405AB22C23FB181B7821
:103AB000002B01D0002301E080235B4213435AB264
:103AC0003023FB181B781B015BB213435BB2DBB2E4
:103AD0001900302000F056FF312000F067FF03008E
:103AE0001A0040231343DBB21900312000F04AFFD3
:103AF000FEE0824B0E22BA18402112785A547B689D
:103B0000022B00D9FEE77B6807337B607B4B7A682A
:103B10005A647A4B3A6A9A64784B2422BA184D2137
:103B200012785A54754B2822BA184E2112885A52CC
:103B3000724B2C22BA18502112785A546F4B3422EF
:103B4000BA18532112785A546C4B3822BA1854219F
:103B500012785A54694B3022BA18522112785A54AA
:103B6000664B3C22BA18552112785A54634B3A6C72
:103B70009A653B6A0C2B02D90C233B6204E03B6A3A
:103B8000052B01D806233B627B68072B05D13B6AD6
:103B90000B2B08D03B6A0C2B05D07B68082B07D178
:103BA0003B6A0C2B04D1554B4C220121995403E064
:103BB000524B4C2200219954504B53229B5C002BBA
:103BC00013D0442000F0F2FE03001A0080235B4271
:103BD0001343DBB21900442000F0D4FE474B5422BB
:103BE0009B5C1900242000F0CDFE1D2000F0DEFEBD
:103BF0007B68DBB21B01DAB22423FB181B78DB18CD
:103C0000DBB21343DAB22C23FB181B781343DBB26D
:103C100019001D2000F0B6FE1E2000F0C7FE0300B4
:103C20001A000B231340DAB23B6ADBB21B01DBB292
:103C30001343DAB23023FB181B789B00DBB213432B
:103C4000DBB219001E2000F09DFE262000F0AEFE23
:103C500003005BB2082293435AB2284B4C215B5CB1
:103C6000DB005BB213435BB2DBB21900262000F02D
:103C700089FE2823FB181B881B0A9BB2DBB21900A4
:103C8000202000F07FFE2823FB181B88DBB21900E0
:103C9000212000F077FE3B6A062B14D1312000F082
:103CA00085FE03005BB2072293435BB205221343F8
:103CB0005BB2DBB21900312000F064FE0C2137202A
:103CC00000F060FE13E0312000F070FE03005BB2F4
:103CD000072293435BB2032213435BB2DBB21900AA
:103CE000312000F04FFE0A21372000F04BFEC04685
:103CF000C046BD4605B090BDA4020020BC12002005
:103D000080844E4080847E41F0B595B000AF0200C3
:103D1000FB1D1A70BB1D0A1C1A700023FB64FB1DDF
:103D20001B78002B03D0012B00D186E064E1B54B5A
:103D30001B8C1C00272000F039FE03001A00F8231A
:103D40009A4313000133E3181800FEF78BFFAD4BC5
:103D500022229B5C002B02D00023002401E00023E0
:103D6000A94C1A002300FDF76FFA03000C001D0098
:103D70002600302000F01AFE03001A00F9239A43AF
:103D8000131E02D00023A04C01E0002300241A00DF
:103D9000230028003100FDF757FA03000C0025002E
:103DA0001C00BB1D1B781800FEF75CFF02000B0017
:103DB00020002900FDF748FA03000C00180021003C
:103DC000904B24229B5C002B03D000238024E4052D
:103DD00001E0002300241A002300FDF735FA030058
:103DE0000C00180021000022884BFEF771F9030037
:103DF0000C0025001C00834BDB691800FEF774FFE4
:103E000002000B0020002900FDF72EFD03000C002E
:103E10001800210000227E4BFEF75AF903000C0027
:103E20001800210013F05CFC03000C0018002100B6
:103E3000FCF778FB0300FB64DEE0002300243B6416
:103E40007C64704B5B6C082B08D0092B0BD0072BC4
:103E50000ED100236F4C3B647C6409E000236E4C60
:103E60003B647C6404E000236C4C3B647C64C0468F
:103E7000644B9B6C01229A4013001800FEF7F2FE7F
:103E800003000C001A002300386C796CFDF7ECFC81
:103E900003000C00BB63FC63BA6BFB6B00205A4948
:103EA000FDF7E2FC03000C003B637C63554B4E22A4
:103EB0009B5A1800FEF7D6FE0022594BFDF7C4F9B5
:103EC00003000C00180021003A6B7B6BFEF700F931
:103ED00003000C00BB62FC62BB1D1B78DB001A00F8
:103EE000484B9B6C9B00D31A464A5221525C1201EC
:103EF0009A18444B50215B5C002B01D0142300E046
:103F00000023D31A1C331800FEF7EEFE04000D0048
:103F10003C4B9A6C3B4B4C215B5C002B01DD02233C
:103F200000E00023D31A9B001800FEF7DDFE02001C
:103F30000B0020002900FDF797FC03000C0018007F
:103F4000210013F0C9FA04000D002E4B4D229B5C9A
:103F500004331800FEF786FE02000B002000290043
:103F6000FEF7B6F803000C003B627C6200220023DF
:103F7000386A796AFCF768FA031E08D00022234BDE
:103F8000386A796AFDF760F903000C0001E000234C
:103F90001E4CBB61FC613A6B7B6BB869F969FEF73B
:103FA00097F803000C003B617C613A697B69B86A51
:103FB000F96AFDF749F903000C00BB60FC600022C0
:103FC000134BB868F968FEF783F803000C0018007B
:103FD0002100144A144BFDF737F903000C001800B8
:103FE000210013F0FBFA03000C0018002100FCF77D
:103FF00099FA0300FB64C046FB6C1800BD4615B07F
:10400000F0BDC046BC1200200000F03F0000204080
:1040100000408F408084FE4080840E4180841E4199
:10402000000011402B8716D9CEF7EF3F80B584B042
:1040300000AF78600A00FB1C1A700023FB60594B2C
:104040005B79002B02D0012B4CD0A2E0554B002213
:104050009A87FB1C1B789AB2524B5A87514B2222EB
:104060009B5C01225340DBB2002B05D0FB1C0121DD
:10407000180000F03CFD05E0FB1C1B781900322005
:1040800000F080FCFB1C1B78002B09D0FB1C1B786C
:10409000402B05D8FB1C1978424B3F2299540BE06A
:1040A000FB1C1B789AB279683F4B18000EF018F889
:1040B0003C4B3F22202199543A4B3F229A5C7B682B
:1040C0001100180000F013FD364B9A8F354B3F213D
:1040D0005B5C9BB2D3189AB2324B9A87314B9B6A86
:1040E000FB6056E02F4B55229B5C002B11D03320F8
:1040F00000F05CFC03001A0041239A431300DBB27A
:104100001900332000F03EFC19213B2000F03AFC5E
:1041100013E0332000F04AFC03005BB241229343DA
:104120005BB2012213435BB2DBB21900332000F013
:1041300029FC1D213B2000F025FCFB1C1978194BA4
:1041400064229954FB1C1B781900222000F01AFCF1
:1041500000210E2000F016FC00210D2000F012FCC2
:10416000012000F023FC03001A00F8239A43131ED9
:1041700004D100F035F801200DF05EFCFB1C1A782C
:104180007B681100180000F0B2FC064B9B6DFB60D1
:10419000C046FB68180000F0CDF9C046BD4604B02B
:1041A00080BDC046BC120020A401002080B500AF35
:1041B000084B18000DF03EFE074B18000DF03AFEBC
:1041C000002000F037FB054B00221A71C046BD46A7
:1041D00080BDC0462413002094120020BC12002091
:1041E00080B500AF084B18000DF024FE074B1800F7
:1041F0000DF020FE012000F01DFB054B00221A717E
:10420000C046BD4680BDC046241300209412002045
:10421000BC12002080B584B000AF78600F23FB187B
:1042200000221A70B84B5B79002B02D0012B41D0D1
:1042300028E10F23FB18B44A2621525C1A70402053
:1042400000F0B4FB03005BB2032213405BB20C220C
:1042500013435BB2DBB21900402000F093FB412016
:1042600000F0A4FB03001A003F235B421343DBB2C0
:104270001900412000F086FB352000F097FB030079
:104280001A003F231340D9B29F4B3E2299541E215E
:104290000D2000F077FB9C4B3022002199549A4B63
:1042A000312200219954984B00229A87964B002284
:1042B0005A87E7E0944B55229B5C002B10D03320AB
:1042C00000F074FB03001A0041231343DBB2190012
:1042D000332000F057FB19213B2000F053FB13E083
:1042E000332000F063FB03005BB2412293435BB2D7
:1042F000012213435BB2DBB21900332000F042FB12
:104300001D213B2000F03EFB7F4B5B6C082B00D94E
:1043100076E0312000F04AFB03001A007F231340AF
:10432000DBB21900312000F02DFB0021302000F01D
:1043300029FB754B5B6C082B6FD89A00734BD31815
:104340001B689F4648212F2000F01CFB6E4B9B688A
:104350006F4A944663441800FEF72EFF5DE0442147
:104360002F2000F00FFB684B9B686A4A9446634419
:104370001800FEF721FF50E044212F2000F002FB3F
:10438000614B9B68644A944663441800FEF714FF2F
:1043900043E044212F2000F0F5FA5B4B9B685F4A15
:1043A000944663441800FEF707FF36E044212F20AF
:1043B00000F0E8FA544B9B68594A9446634418004D
:1043C000FEF7FAFE29E044212F2000F0DBFA4E4BE5
:1043D0009B68544A944663441800FEF7EDFE1CE0C7
:1043E00040212F2000F0CEFA17E040212F2000F0CE
:1043F000C9FA12E040212F2000F0C4FAC0460CE0B8
:10440000312000F0D3FA03001A0080235B421343EB
:10441000DBB21900312000F0B5FA0F23FB183A4A3D
:104420005621525C1A70384B53229B5C002B10D0E3
:104430001D21112000F0A6FA402000F0B7FA030079
:104440001A0033231340DBB21900402000F09AFA1F
:104450000FE01F21112000F095FA402000F0A6FA8D
:1044600003001A003F231340DBB21900402000F084
:1044700089FA00210F2000F085FA00210D2000F0BC
:1044800081FAC04680235A00274B0021180012F001
:10449000E9F81D4B01221A717B68002B09D07A685C
:1044A000224B110018000DF069FD204B18000DF093
:1044B000ABFB154B5B79002B16D1052000F0BAF948
:1044C0000F23FB181B7801225340DBB2002B17D0BF
:1044D0000D4BDA6A164B110018000DF04FFD144B0E
:1044E00018000DF091FB0BE00F23FB181B78002B3D
:1044F00003D0052000F09EF902E0062000F09AF9B2
:10450000C046BD4604B080BDBC120020CC7A010874
:10451000821E0000B4280000043D00005E5100002F
:10452000127A0000C6A20000A4010020241300207B
:10453000A812002080B582B000AF78607A68384B4E
:10454000110018000DF01AFD364B5B79002B02D0DC
:10455000012B28D056E0402000F028FA03005BB27F
:10456000032213405BB2102213435BB2DBB219008B
:10457000402000F007FA412000F018FA03001A006A
:104580003E231340DBB21900412000F0FBF9352037
:1045900000F00CFA03001A003F231340D9B2214B5C
:1045A0003E2299542EE01F4B53229B5C002B14D0CB
:1045B000F521112000F0E6F9402000F0F7F90300A2
:1045C0005BB2332213405BB2402213435BB2DBB2D7
:1045D0001900402000F0D6F913E0F721112000F077
:1045E000D1F9402000F0E2F903005BB23F22134012
:1045F0005BB2402213435BB2DBB21900402000F0F3
:10460000C1F9C046074B02221A71054B18000DF084
:10461000FBFA032000F00EF9C046BD4602B080BD93
:1046200094120020BC12002080B500AF114B5B79C2
:10463000002B1AD0012B00D018E0FA21112000F035
:10464000A1F9402000F0B2F903001A0003239A43B5
:104650001300DBB21900402000F094F9054B03224F
:104660001A71072000F0E6F800E0C046C046BD46DB
:1046700080BDC046BC12002080B58EB00AAF786005
:1046800008001100FB1C021C1A703B000A1C1A8057
:104690003B001B88FA2292005343FB607B681800A2
:1046A000FEF78AFDFB1C00215956FB680893002386
:1046B000079300230693002305930023049300230C
:1046C0000393052302930023019396235B01009338
:1046D000002300220020FFF743F9312000F066F9A3
:1046E00003001A0040239A431300DBB21900312063
:1046F00000F048F9F021402000F044F9A0214120C9
:1047000000F040F9FA68094B110018000DF036FC72
:10471000074B02221A71054B18000DF075FA0320A1
:1047200000F088F8C046BD4604B080BD9412002059
:10473000BC12002080B584B000AF0200FB1D1A70CF
:104740000E23FB1800221A80FB1D1B78002B02D0C1
:10475000012B0DD027E0112000F028F903005B08A1
:10476000DBB29BB25B429AB20E23FB181A8020E0A8
:10477000144B9B68144A93420AD91B2000F016F987
:1047800003009BB29D3B9AB20E23FB181A8010E0E7
:104790001B2000F00BF903009BB2A43B9AB20E233E
:1047A000FB181A8005E00E23FB18012252421A80E2
:1047B000C0460E23FB1800229B5E1800BD4604B0C5
:1047C00080BDC046BC12002040DD4A1F80B586B0C7
:1047D00000AF3B1D180014231A00002111F042FF06
:1047E0003B1D01225A603B1D00229A603B1D0322A3
:1047F000DA603B1D0E481A0001210DF025FD0C4B1F
:104800000022012118000DF0F1FD01200DF014F936
:104810003B1D00225A603B1D05481A0001210DF086
:1048200013FD06200DF008F9C046BD4606B080BD58
:104830000004005080B582B000AF0200FB1D1A706A
:10484000FB1D1B78002B1CD1012000F0AFF80300EA
:104850005BB2072293435AB2FB1D1B785BB2134332
:104860005BB2DBB21900012000F08CF8184B1B681A
:104870001B6901209847164B1B681B68002098474E
:1048800022E0134B1B681B6801209847104B1B68E4
:104890001B69002098470E4B1B685B69FA1D127854
:1048A00010009847012000F081F803005BB2072256
:1048B00093435AB2FB1D1B785BB213435BB2DBB26E
:1048C0001900012000F05EF8C046BD4602B080BD70
:1048D000A402002080B582B000AF0200FB1D1A7058
:1048E000012000F063F803005BB2002B03DA244BD5
:1048F00001225A7102E0224B00225A71204B5B794F
:10490000FA1D12789A4237D01D4BFA1D12785A714F
:104910001B4B5B79012B16D0FFF748FC012000F000
:1049200045F803001A007F231340DBB21900012071
:1049300000F028F80021402000F024F83021412028
:1049400000F020F819E0FFF731FC012000F02EF80C
:1049500003001A0080235B421343DBB219000120DD
:1049600000F010F80021402000F00CF80021412058
:1049700000F008F8C04600E0C046BD4602B080BD69
:10498000BC12002080B582B000AF0200FB1D1A707F
:10499000BB1D0A1C1A70B91DFB1D1B7801221800D3
:1049A00000F019F8C046BD4602B080BD80B584B0A5
:1049B00000AF0200FB1D1A700F23F918FB1D1B78B6
:1049C0000122180000F04DF80F23FB181B78180087
:1049D000BD4604B080BD80B584B000AF3960110021
:1049E000FB1D021C1A70BB1D0A1C1A7080231902C1
:1049F000A023DB05002218000DF0F8FCFB1D1B783E
:104A0000802252421343DBB29BB218000EF010FB1F
:104A10000F23FB1800221A7010E00F23FB181B78DD
:104A20003A68D3181B789BB218000EF001FB0F23D5
:104A3000FB181A780F23FB1801321A700F23FA188B
:104A4000BB1D12781B789A42E7D380231902A0235A
:104A5000DB05012218000DF0C9FCC046BD4604B0BC
:104A600080BD90B585B000AF39601100FB1D021C00
:104A70001A70BB1D0A1C1A7080231902A023DB05C3
:104A8000002218000DF0B2FCFB1D1B789BB27F22A8
:104A900013409BB218000EF0CBFA0F23FB18002234
:104AA0001A7011E00F23FB181B783A68D418002005
:104AB0000EF0BEFA0300DBB223700F23FB181A7846
:104AC0000F23FB1801321A700F23FA18BB1D12783E
:104AD0001B789A42E6D380231902A023DB0501222A
:104AE00018000DF083FCC046BD4605B090BD80B5F2
:104AF00082B000AF78600A00FB1C1A70FB1C1A78A9
:104B00007B6819000020FFF766FFC046BD4602B073
:104B100080BD80B582B000AF78600A00FB1C1A70BF
:104B2000FB1C1A787B6819000020FFF79AFFC0462B
:104B3000BD4602B080BD000080B582B000AF02006B
:104B4000FB1D1A70BB1D0A1C1A70FB1D1B78180078
:104B5000FFF7C0FEFB1D1B78002B02D0012B0FD0EE
:104B600016E00D4B22229B5C01225340DBB2002B4E
:104B70000DD0BB1D1B7819003220FFF703FF06E0A4
:104B8000BB1D1B7819002320FFF7FCFE00E0C04688
:104B9000C046BD4602B080BDBC12002080B582B0C8
:104BA00000AF0200FB1D1A700120FFF793FE0B4BB4
:104BB000FA1D5C2112785A54FB1D1B78002B04D07F
:104BC00034213920FFF7DEFE03E012213920FFF700
:104BD000D9FEC046BD4602B080BDC046BC12002012
:104BE00080B500AF044B1B685B6898470300023335
:104BF0001800BD4680BDC046A402002080B582B02A
:104C000000AF504B1B79012B02D0022B45D094E012
:104C10004C4B5B79002B32D14A4B30220021995406
:104C2000484B312200219954464B00229A87454B2C
:104C300000225A870B213E20FFF7A4FE10213F20BF
:104C4000FFF7A0FE3F4B26229B5C002B10D00D20CF
:104C5000FFF7ACFE03001A0040231343DBB2190038
:104C60000D20FFF78FFE384B18000CF0CDFF06E04B
:104C7000344B00221A71344B18000DF0DBF8334B23
:104C80001B68002B56D0314B1B68DB68002B51D0C2
:104C90002E4B1B68DB6898474CE0FFF797FDFEF74B
:104CA00057FB0020FFF7C6FDFB1D00221A7023E012
:104CB000FB1D1A78264913005B009B185B5C1800EB
:104CC000FFF708FEFB1D1A78214913005B009B18B3
:104CD000CB1801331878FB1D1A781D4913005B00AF
:104CE0009B18CB1802331B781900FFF74BFEFB1DF6
:104CF0001A78FB1D01321A70FB1D1B780F2BD7D9B8
:104D00000020FFF7E7FD0F4B5C229B5C1800FFF7CC
:104D100045FF0C4B00221A710C4B1B68002B0BD06B
:104D20000A4B1B685B68002B06D0084B1B685B684E
:104D3000984701E0C04600E0C046C046BD4602B00C
:104D400080BDC046BC120020A8120020A001002097
:104D5000EC790108B0B582B000AFFB1C00221A70DC
:104D6000D64B1B79012B03D0022B00D10DE22EE292
:104D7000D24B5B79002B03D0012B00D1EAE003E298
:104D8000CE4B24229B5C002B56D03F20FFF70EFE1B
:104D900003001A00FB1C1A70FB1C1B78DBB21A0004
:104DA00002231340022B47D00B213E20FFF7EAFDE0
:104DB00010213F20FFF7E6FDC14B18000DF03AF837
:104DC000BE4B26229B5C01225340DBB2002B07D056
:104DD000BC4B18000DF02EF8B84B00221A710FE0F2
:104DE0000D20FFF7E3FD03001A0040231343DBB25D
:104DF00019000D20FFF7C6FDB24B18000CF004FFA0
:104E0000B14B1B68002B08D0AF4B1B681B69002BF4
:104E100003D0AD4B1B681B699847A84B302200217B
:104E20009954A64B312200219954A44B00229A8711
:104E3000A24B00225A87A7E1A04B5B8F002B2DD1FC
:104E40009E4B9B8F002B29D19C4B22229B5C0122E5
:104E50005340DBB2002B05D09C4B01211800FFF71B
:104E600058FE06E03220FFF7A1FD03009AB2934BF3
:104E70005A87924B9B8F1A00954BD0188F4B5B8FA4
:104E8000DAB28E4B9B8FDBB2D31ADBB21900FFF77D
:104E900040FE8A4B5A8F894B9A8713E0874B9B8F32
:104EA0001A008B4BD018854B5B8FDAB2834B9B8FEC
:104EB000DBB2D31ADBB21900FFF72BFE7F4B5A8F00
:104EC0007E4B9A877E4B18000CF0B4FF7B4B26225A
:104ED0009B5C01225340DBB2002B07D0774B0022B2
:104EE0001A71784B18000CF0A5FF0FE00D20FFF7AA
:104EF0005DFD03001A0040231343DBB219000D20AF
:104F0000FFF740FD6F4B18000CF07EFE6E4B1B68E8
:104F1000002B10D06C4B1B689B68002B0BD06A4B8E
:104F20001B689C68654B598F644B32229B561AB2A2
:104F300067480023A047614B3022002199545F4B02
:104F40003122002199545D4B00229A875B4B00224D
:104F50005A8719E1FB1D00221A7040211220FFF729
:104F600011FD1220FFF722FD03001A00FB1C1A702E
:104F7000FB1C1B78DBB21A0020231340202B22D10C
:104F800020211220FFF7FEFC4C4B56229B5C012295
:104F90005340DBB2002B02D0484B00221A71484B21
:104FA00018000CF047FF484B1B68002B00D1E8E0CD
:104FB000454B1B681B69002B00D1E2E0424B1B688C
:104FC0001B699847DDE01920FFF7F0FC030059B298
:104FD0003A4B60229954394B60229B56002B10DAD1
:104FE000364B60229B565B429B105AB2FB1D3F2101
:104FF0000A401A70FB1D1B785B42DAB2FB1D1A7067
:1050000008E02E4B60229B569B105AB2FB1D3F219D
:105010000A401A701A20FFF7C9FC03001A003B1D52
:105020001A80FB1D1B787F2B32D9244B9B68294AA1
:10503000934216D93B1D00229B5E1B111BB29AB2F4
:105040003B1D1B88D3189AB2FB1D1B785BB29BB229
:10505000D3189BB29D3B9BB219B2184B6222995256
:105060004AE03B1D00229B5E1B111BB29AB23B1D06
:105070001B88D3189AB2FB1D1B785BB29BB2D31866
:105080009BB2A43B9BB219B20C4B6222995233E003
:105090000A4B9B680F4A93421ED93B1D00229B5E20
:1050A0001B111BB29AB23B1D1B88D3189BB29D3BB0
:1050B0009BB219B2014B622299521DE0BC12002032
:1050C00024130020A8120020A0010020F6120020C6
:1050D000A401002040DD4A1F3B1D00229B5E1B11E6
:1050E0001BB29AB23B1D1B88D3189BB2A43B9BB248
:1050F00019B2394B622299521320FFF757FC030073
:105100001900354B642299541020FFF74FFC03001F
:1051100019000D20FFF736FC2F4B64229A5C2F4BB1
:1051200011001800FFF7F5FC2B4B56229B5C012267
:105130005340DBB2002B02D0274B00221A71284BC0
:1051400018000CF077FE274B1B68002B1BD0254B5B
:105150001B689B68002B16D0224B1B689C681E4B5B
:1051600064229B5C99B21C4B62229D5E1A4B6022AA
:105170009B561A482A00A0471B4B180011F036F81E
:1051800001E0C04623E0C04621E0184B18000CF0B7
:1051900051FE114B5B79012B03D108211220FFF73F
:1051A000F1FB0D4B00221A710E4B1B68002B0CD02B
:1051B0000C4B1B681B68002B07D00A4B1B681B6835
:1051C00098470B4B180011F011F8C046C046C04676
:1051D000BD4602B0B0BDC046BC120020A4010020F4
:1051E00024130020A0010020BC77010894120020A5
:1051F000C877010880B500AF604B1B79012B03D045
:10520000022B00D178E0B6E05C4B5B79002B02D03A
:10521000012B53D06FE0594B5B8F002B18D1574BAC
:105220009B8F002B14D1554B22229B5C01225340B3
:10523000DBB2002B05D0524B01211800FFF769FCAF
:1052400006E03220FFF7B2FB03009AB24B4B5A87BD
:105250004A4B5B8F1A00494B9B8FD31A474A3E211A
:10526000525C934215DD454B9B8F1A00454BD0187D
:10527000424B3E229B5C1900FFF74BFC3F4B9A8F41
:105280003E4B3E215B5C9BB2D3189AB23B4B9A8754
:1052900031E03A4B9B8F1A003A4BD018374B5B8F5B
:1052A000DAB2364B9B8FDBB2D31ADBB21900FFF7B1
:1052B00030FC324B5A8F314B9A871CE0324B18002E
:1052C0000CF0B8FD80211220FFF75CFB2B4B002275
:1052D0001A712E4B1B68002B0CD02C4B1B68DB6803
:1052E000002B07D0294B1B68DB689847284B180018
:1052F00010F07CFFC0463EE0204B5B79002B02D0D3
:10530000012B36D036E01D4B5B8F1A001B4B9B8F59
:10531000D31A1A4A3F21525C934215DD174B9B8FDB
:105320001A00184BD018154B3F229B5C1900FFF751
:10533000DEFB124B9A8F114B3F215B5C9BB2D31863
:105340009AB20E4B9A8715E00C4B9B8F1A000D4BAF
:10535000D0180A4B5B8FDAB2084B9B8FDBB2D31AA3
:10536000DBB21900FFF7C3FB044B5A8F034B9A873C
:1053700000E0C046C046C046BD4680BDBC1200200D
:10538000F6120020A401002024130020A001002018
:10539000D477010890B585B000AF0023FB60584B6F
:1053A0001B79012B03D0022B00D179E0A3E0544BF1
:1053B0005B79002B02D0012B4ED070E0504B302295
:1053C000012199544E4B30229B5C012B64D14C4BF4
:1053D00031229B5C002B5FD14A4B18000CF02AFD58
:1053E000474B3122012199541120FFF7DFFA0300C6
:1053F0005B08DBB25B42DBB259B2414B32229954BB
:105400001B20FFF7D3FA03001C021C20FFF7CEFA83
:1054100003002343FB60FB681B0ABB60BB681B02E5
:10542000FA68D31A7B60BB68374A5A437B683649AF
:105430004B4380331B0AD3181A00314B5A630C209C
:10544000FFF7B4FA03005B09DBB207221340D9B2BD
:105450002B4B382299541FE0294B53229B5C002B85
:105460001CD002211220FFF78DFA284B1B68002B5D
:1054700014D0264B1B685B69002B0FD0234B1B6895
:105480005C691C20FFF792FA03001A003F231340C7
:10549000DBB21800A04701E0C0462CE0C0462AE07D
:1054A000174B5B79002B22D0012B00D022E0144B4C
:1054B00053229B5C002B1CD002211220FFF762FAC2
:1054C000124B1B68002B14D0104B1B685B69002B20
:1054D0000FD00E4B1B685C691C20FFF767FA0300B6
:1054E0001A003F231340DBB21800A04701E0C0467A
:1054F00000E0C046C046C046BD4605B090BDC046AF
:10550000BC120020A8120020093D0000A0010020CC
:1055100080B500AF1D4B5B79002B31D0012B00D043
:1055200031E01220FFF742FA03001A000123134072
:10553000012B12D105211220FFF724FA144B1B680E
:10554000002B1FD0124B1B689B69002B1AD0104BED
:105550001B689B690120984714E004211220FFF783
:1055600011FA0B4B1B68002B0CD0094B1B689B6975
:10557000002B07D0064B1B689B690020984701E071
:10558000C04600E0C046C046BD4680BDBC120020FB
:10559000A001002080B500AF0B4B5B79002B02D03F
:1055A000012B0AD00CE0084B30229B5C002B06D16B
:1055B000054B30220121995401E0C04600E0C0466D
:1055C000C046BD4680BDC046BC12002080B500AFBD
:1055D00000231800BD4680BD80B582B000AF020038
:1055E000FB1D1A70C046BD4602B080BD80B586B0B6
:1055F00000AF3B1D180014231A00002111F032F8EF
:10560000164B1800FDF740FD3B1D154A5A603B1D27
:1056100002229A603B1D0322DA603A1D80239B011F
:10562000104819000CF010FE3A1D8023DB000E48D4
:1056300019000CF009FE3A1D80231B010A481900CD
:105640000CF002FE3A1D80235B00074819000CF0A5
:10565000FBFDC046BD4606B080BDC0461800002018
:1056600000001110000800500004005080B582B006
:1056700000AF78607B681A68802399011348130093
:1056800000220CF055FE7B6804331A688023D90091
:105690000F48130000220CF04BFE7B6808331A6899
:1056A000802319010A48130000220CF041FE7B6898
:1056B0000C331A68802359000548130000220CF0AF
:1056C00037FEC046BD4602B080BDC046000800504F
:1056D0000004005080B586B000AF3B1D18001423B5
:1056E0001A00002110F0BEFF3B1D124A5A603B1DFC
:1056F00002229A603A1D80239B010F4819000CF08A
:10570000A3FD3A1D8023DB000C4819000CF09CFD22
:105710003A1D80231B01094819000CF095FD3A1D24
:1057200080235B00054819000CF08EFDC046BD4685
:1057300006B080BD000011100008005000040050A9
:1057400090B585B000AF0200FB1D1A700F23FB1847
:1057500000221A700E23FB1800221A700F23FC1867
:105760000920FFF723F9030023700E23FC184D20B6
:10577000FFF71CF9030023700F23FB181B785BB2A3
:105780007F2213405CB25E4B9B68180000F0BAF8B1
:1057900003005BB223435AB20F23FB181A700F2386
:1057A000FB180F22BA18127870210A431A700F23BF
:1057B000FB181B785BB2002B6BDAFB1D1B785BB20E
:1057C000112B08DD0E23FB180E22BA1812780721C0
:1057D0000A431A700CE00E23FB181B785BB20722F9
:1057E00093435BB2042213435AB20E23FB181A7080
:1057F0000E23FB181B7807221340072B24D1FB1D17
:105800001B785BB2042B02DCFB1D05221A70FB1D0A
:105810001B785BB2142B02DDFB1D14221A700F23C0
:10582000FB181B785BB20F2293435AB2FB1D1B7807
:10583000053BDBB25BB20F210B405BB213435AB2A4
:105840000F23FB181A7048E0FB1D1B785BB2012B7D
:1058500002DCFB1D02221A70FB1D1B785BB2112BB0
:1058600002DDFB1D11221A700F23FB181B785BB29F
:105870000F2293435AB2FB1D1B78023BDBB25BB293
:105880000F210B405BB213435AB20F23FB181A705F
:1058900023E0FB1D1B785BB2013302DAFB1DFF2204
:1058A0001A70FB1D1B785BB20E2B02DDFB1D0E2256
:1058B0001A700F23FB181B785BB20F2293435AB266
:1058C000FB1D1B780133DBB25BB20F210B405BB2D7
:1058D00013435AB20F23FB181A700F23FB181B78BF
:1058E00019000920FFF74EF80E23FB181B7819004A
:1058F0004D20FFF747F8C046BD4605B090BDC046F5
:10590000BC12002080B582B000AF78607B68054A89
:10591000934201D8802300E080231800BD4602B0E6
:1059200080BDC0463FDD4A1F80B582B000AF020097
:10593000FB1D1A700C4B1B78FA1D12789A420FD07F
:10594000094BFA1D12781A70FB1D1B780122534077
:10595000DBB2002B02D000F009F801E000F02DF8D6
:10596000C046BD4602B080BDA802002080B586B00A
:1059700000AF3B1D180014231A00002110F072FE26
:105980003B1D01225A603B1D00229A603B1D0322F1
:10599000DA603A1D80235900A023DB0518000CF0C3
:1059A00053FC80235900A023DB05002218000CF0D3
:1059B0001DFDC046BD4606B080BD80B586B000AFB7
:1059C0003B1D180014231A00002110F04BFE3B1D54
:1059D00001225A603B1D00229A603B1D0322DA60BF
:1059E0003A1D80235900A023DB0518000CF02CFC85
:1059F00080235900A023DB05002218000CF0F6FCE0
:105A0000C046BD4606B080BD80B582B000AF020082
:105A1000FB1D1A70FB1D1B78032B08D18023590036
:105A2000A023DB05012218000CF0E0FC08E0802335
:105A30005900A023DB05002218000CF0D7FCC0465B
:105A4000C046BD4602B080BD80B582B000AF786070
:105A500001231800BD4602B080BD00000D488546F8
:105A6000002103E00C4B5B58435004310B480C4BB6
:105A700042189A42F6D30B4A02E000231360043224
:105A8000094B9A42F9D310F073FB10F0C7FD0EF0EA
:105A900039FEFEE7005000207C8201080000002053
:105AA0007001002070010020F4140020FEE70000C7
:105AB00080B500AF074B074A126840210A431A60BD
:105AC00000200FF0FFFC0FF013FD00231800BD466F
:105AD00080BDC0460020024080B500AF034B1B686C
